:020000040800F2
:100000000000022081100008690C00086F0C000835
:10001000750C00087B0C0008810C00080000000033
:10002000000000000000000000000000870C000835
:10003000950C000800000000A30C0008B10C00089B
:10004000D1100008D1100008D1100008D11000080C
:10005000D1100008D1100008D1100008D1100008FC
:10006000D1100008D1100008D1100008D1100008EC
:10007000D1100008D1100008D1100008D1100008DC
:10008000D1100008D1100008D1100008D1100008CC
:10009000D1100008D1100008D1100008D1100008BC
:1000A000D1100008D1100008D1100008D1100008AC
:1000B000D1100008D1100008D1100008D11000089C
:1000C000D1100008D1100008D1100008D11000088C
:1000D000D1100008D1100008D1100008D11000087C
:1000E000D1100008D1100008D1100008D11000086C
:1000F000D1100008D1100008D1100008D11000085C
:10010000D1100008D1100008D1100008D11000084B
:10011000D1100008D1100008D1100008D11000083B
:10012000D1100008D1100008D1100008D11000082B
:10013000D1100008D1100008D1100008D11000081B
:10014000D1100008D1100008D1100008BD0C000823
:10015000D1100008D1100008D1100008D1100008FB
:10016000D1100008D1100008D1100008D1100008EB
:10017000D1100008D1100008D110000800000000C4
:08018000D1100008D1100008A5
:1001880010B5054C237833B9044B13B10448AFF3C9
:1001980000800123237010BDC8010020000000006A
:1001A8005885000808B5034B1BB103490348AFF352
:1001B800008008BD00000000CC0100205885000820
:1001C80010F8012B11F8013B012A28BF9A42F7D0F9
:1001D800D01A7047034613F8012B002AFBD1181ACE
:1001E8000138704753B94AB9002908BF00281CBF15
:1001F8004FF0FF314FF0FF3000F070B9ADF1080C4F
:100208006DE904CE00F006F8DDF804E0DDE902232C
:1002180004B070472DE9F047089E0D4604460F4686
:10022800002B4AD18A42944665D9B2FA82F343B187
:1002380002FA03FCC3F120029F4020FA02F217439E
:100248009C404FEA1C4E1FFA8CF5B7FBFEF1220CBE
:100258000EFB117742EA074201FB05F090420AD9EA
:100268001CEB020201F1FF3780F01C81904240F242
:10027800198102396244121AA4B2B2FBFEF00EFBD5
:10028800102244EA024400FB05F5A5420AD91CEBFA
:10029800040400F1FF3280F00781A54240F2048196
:1002A8006444023840EA0140641B00211EB1DC406E
:1002B8000023C6E90043BDE8F0878B4208D9002E29
:1002C80000F0ED800021C6E900050846BDE8F0878A
:1002D800B3FA83F1002949D1AB4202D3824200F23A
:1002E800F880841A65EB030201201746002EE2D03D
:1002F800C6E90047DFE702B9FFDEB2FA82F3002B56
:1003080040F090808A1A4FEA1C471FFA8CFE0121A0
:10031800B2FBF7F507FB1520220C42EA00420EFB60
:1003280005F0904208D91CEB020205F1FF3802D211
:10033800904200F2CB804546121AA4B2B2FBF7F005
:1003480007FB102244EA02440EFB00FEA64508D92A
:100358001CEB040400F1FF3202D2A64500F2BB8078
:100368001046A4EB0E0440EA05409FE7C1F12007C0
:100378008B4022FA07FC4CEA030C05FA01F420FA38
:1003880007F3FD404FEA1C492343B5FBF9F81FFA70
:100398008CFE09FB18551C0C44EA054408FB0EF5B5
:1003A800A54202FA01F200FA01F00BD91CEB040491
:1003B80008F1FF3A80F08880A54240F28580A8F1D4
:1003C80002086444641B9DB2B4FBF9F309FB1344AF
:1003D80045EA044403FB0EFEA64508D91CEB0404B9
:1003E80003F1FF356CD2A6456AD9023B644443EA5F
:1003F8000843A3FB0295A4EB0E04AC42C846AE46E4
:1004080056D353D056B1B0EB080264EB0E0404FA8D
:1004180007F7CA40CC401743C6E9007418460021C4
:10042800BDE8F087C3F1200102FA03FC20FA01F2CB
:1004380025FA01F19D402A434FEA1C471FFA8CFE1A
:10044800B1FBF7F007FB1015110C41EA054100FB61
:100458000EF58D4204FA03F408D91CEB010100F1F2
:10046800FF382FD28D422DD902386144491B92B2F0
:10047800B1FBF7F507FB151142EA014205FB0EF146
:10048800914208D91CEB020205F1FF3816D29142BD
:1004980014D9023D6244521A45EA004138E7314610
:1004A800304608E73946E6E61046FBE64845A9D255
:1004B800B9EB020865EB0C0E013BA3E74546EAE7FA
:1004C8002B4694E74046D1E7D0467BE7023D62449D
:1004D80032E708460AE76444023842E7704700BF3B
:1004E80080B582B000AF3B4683E80300F523FB717B
:1004F800FB793B703B4693E8030000F02DF8034678
:10050800BB7139464FF4FA630822034803F076F8C2
:1005180000BF0837BD4680BD2C02002080B584B0DE
:1005280000AF786007F1080300221A605A6007F1EB
:1005380008014FF4FA630822064803F0EAF87B68DA
:100548001A4607F1080303CB10605160786810372A
:10055800BD4680BD2C02002080B485B000AF3B466C
:1005680083E803007B78FB810023BB600AE0BA1CA8
:10057800BB6813441B789AB2FB895340FB81BB6864
:100588000133BB60BB68032BF1DDFB89DBB2184686
:100598001437BD465DF8047B704780B584B000AF62
:1005A80007F1080300221A605A60B5237B7207F12D
:1005B800080393E80300FFF793FF3B461846FFF74D
:1005C800ADFFFB7818461037BD4680BD80B586B0B4
:1005D80000AF0346FB7107F1100300221A605A604E
:1005E80001237B74FB79BB7407F1100393E80300C4
:1005F800FFF776FF07F108031846FFF78FFFFB7A2E
:10060800032BF7D100BF00BF1837BD4680BD80B5AA
:1006180084B000AF0346FB7107F1080300221A609B
:100628005A6004237B72FB79BB7207F1080393E8D5
:100638000300FFF755FF00BF1037BD4680BD80B5EA
:1006480082B000AF3B4600221A605A6005237B70D7
:100658003B4693E80300FFF743FF00BF0837BD465A
:1006680080BD80B586B000AF0023FB7500BFFB7D61
:100678005A1CFA75C72B04D8FFF78FFF0346002BC7
:10068800F5D0FB7DC82B01D9002311E007F10C033D
:1006980000221A605A600C237B7307F10C0393E85D
:1006A8000300FFF71DFF3B1D1846FFF737FFFB79D7
:1006B80018461837BD4680BD80B584B000AF07F135
:1006C800080300221A605A600D237B7207F10803A1
:1006D80093E80300FFF704FF3B461846FFF71EFFA9
:1006E800FB7818461037BD4680BD80B582B000AF94
:1006F8003B4600221A605A6092237B703B4693E87F
:100708000300FFF729FF0346BB713B4693E803004C
:10071800FFF7E6FE00BF0837BD4680BD80B500AFD5
:1007280001224FF48051024801F014F800BF80BD47
:10073800000C024080B500AF00224FF480510248FF
:1007480001F008F800BF80BD000C024080B500AF82
:1007580001224FF48041024800F0FCFF00BF80BD39
:10076800000C024080B500AF00224FF480410248DF
:1007780000F0F0FF00BF80BD000C024080B500AF64
:1007880001224FF48041024800F0E4FF00BF80BD21
:10079800000C024080B500AF00224FF480410248AF
:1007A80000F0D8FF00BF80BD000C024080B500AF4C
:1007B800044B5B689847044B5B689847034B1B687E
:1007C8009847F5E7080000201000002000000020EE
:1007D80080B500AF00F07AFC00F016F800F0D2F80F
:1007E80006F068FD00F07AF804F09BFE00F0A0F82F
:1007F800034B1B781A46034B53F822309847F7E708
:10080800BC020020A886000880B594B000AF07F1AC
:10081800200330220021184607F07CFC07F10C0366
:1008280000221A605A609A60DA601A610023BB607D
:10083800284B1B6C274A43F080531364254B1B6CD1
:1008480003F08053BB60BB6800237B60224B1B68AE
:10085800214A43F4804313601F4B1B6803F4804311
:100868007B607B6801233B624FF480337B62022309
:10087800BB634FF48003FB6304233B64A8237B64BE
:100888000223BB640723FB6407F12003184602F028
:10089800CDF90346002B01D000F0F6F80F23FB60DA
:1008A80002233B6100237B614FF4A053BB614FF4EB
:1008B8008053FB6107F10C030521184602F02EFC5A
:1008C8000346002B01D000F0DFF800BF5037BD46CB
:1008D80080BD00BF003802400070004080B500AF06
:1008E800114B124A1A60104B4FF4E1325A600E4B0A
:1008F80000229A600C4B0022DA600B4B00221A612E
:10090800094B0C225A61084B00229A61064B0022BF
:10091800DA61054802F022FE0346002B01D000F000
:10092800B3F800BF80BD00BFE4010020004C0040C8
:1009380080B500AF114B124A1A60104B4FF4E132E8
:100948005A600E4B00229A600C4B0022DA600B4B67
:1009580000221A61094B0C225A61084B00229A6145
:10096800064B0022DA61054802F0F8FD0346002B29
:1009780001D000F089F800BF80BD00BF2C02002024
:100988000050004080B58AB000AF07F11403002280
:100998001A605A609A60DA601A6100233B612D4B35
:1009A8001B6B2C4A43F0800313632A4B1B6B03F029
:1009B80080033B613B690023FB60264B1B6B254A88
:1009C80043F001031363234B1B6B03F00103FB602C
:1009D800FB680023BB601F4B1B6B1E4A43F00803D8
:1009E80013631C4B1B6B03F00803BB60BB6800233D
:1009F8007B60184B1B6B174A43F004031363154BBA
:100A08001B6B03F004037B607B6800224FF470418A
:100A1800114800F09FFE01237B610023BB61002386
:100A2800FB6107F1140319460C4800F0F7FC4FF47A
:100A380070437B610123BB610023FB6100233B62A0
:100A480007F114031946044800F0E8FC00BF2837F2
:100A5800BD4680BD00380240000C02400000024044
:100A680080B584B000AFF860B9607A607B689AB2EC
:100A78006423B968034802F0C1FD7B681846103743
:100A8800BD4680BDE401002080B400AF72B600BF4F
:100A9800FEE7000080B483B000AF00237B60104BFA
:100AA8005B6C0F4A43F4804353640D4B5B6C03F457
:100AB80080437B607B6800233B60094B1B6C084AC2
:100AC80043F080531364064B1B6C03F080533B6068
:100AD8003B6800BF0C37BD465DF8047B704700BF1C
:100AE8000038024080B58EB000AF786007F124036B
:100AF80000221A605A609A60DA601A617B681B6883
:100B0800514A93424BD100233B62504B1B6C4F4AD6
:100B180043F4002313644D4B1B6C03F400233B6226
:100B28003B6A0023FB61494B1B6B484A43F00103B6
:100B38001363464B1B6B03F00103FB61FB69002346
:100B4800BB61424B1B6B414A43F0040313633F4BA9
:100B58001B6B03F00403BB61BB6902237B620223A6
:100B6800BB620023FB6203233B6308237B6307F11B
:100B780024031946364800F051FC4FF480637B6229
:100B88000223BB620023FB6203233B6308237B63CE
:100B980007F1240319462F4800F040FC4FE07B681A
:100BA8001B682D4A93424AD100237B61274B1B6C5B
:100BB800264A43F480131364244B1B6C03F48013FC
:100BC8007B617B6900233B61204B1B6B1F4A43F011
:100BD800040313631D4B1B6B03F004033B613B6968
:100BE8000023FB60194B1B6B184A43F0080313637F
:100BF800164B1B6B03F00803FB60FB684FF4805334
:100C08007B620223BB620023FB6203233B6308234E
:100C18007B6307F1240319460E4800F0FFFB042309
:100C28007B620223BB620023FB6203233B6308232E
:100C38007B6307F124031946084800F0EFFB00BF67
:100C48003837BD4680BD00BF004C00400038024028
:100C5800000002400008024000500040000C024022
:100C680080B400AFFEE780B400AFFEE780B400AF09
:100C7800FEE780B400AFFEE780B400AFFEE780B4C3
:100C880000AF00BFBD465DF8047B704780B400AF7D
:100C980000BFBD465DF8047B704780B400AF00BF5D
:100CA800BD465DF8047B704780B500AF00F060FA80
:100CB80000BF80BD80B500AF024800F0C2FE00BF93
:100CC80080BD00BF2408002080B586B000AFF86062
:100CD800B9607A6000237B610AE0AFF300800146C7
:100CE800BB685A1CBA60CAB21A707B6901337B614F
:100CF8007A697B689A42F0DB7B6818461837BD46EC
:100D080080BD80B483B000AF78604FF0FF331846E1
:100D18000C37BD465DF8047B704780B483B000AFE4
:100D2800786039603B684FF400525A6000231846D7
:100D38000C37BD465DF8047B704780B483B000AFC4
:100D48007860012318460C37BD465DF8047B704770
:100D580080B485B000AFF860B9607A6000231846A7
:100D68001437BD465DF8047B7047000080B586B037
:100D780000AF7860144A154BD31A7B617B693B61DD
:100D8800134B1B68002B02D1114B124A1A60104BEF
:100D98001A687B6813443A699A4207D207F02CFA1A
:100DA80003460C221A604FF0FF3309E0084B1B681A
:100DB800FB60074B1A687B681344054A1360FB689D
:100DC80018461837BD4680BD000002200004000008
:100DD80078020020B00E002080B400AF064BD3F894
:100DE8008830054A43F47003C2F8883000BFBD4616
:100DF8005DF8047B704700BF00ED00E084B080B56B
:100E080000AF07F1080C8CE80F00402107F108003B
:100E180006F0BCFA00BFBD46BDE8804004B070478C
:100E280080B400AF00BF054B1B78002BFBD000BF80
:100E380000BFBD465DF8047B704700BFBC020020C0
:100E4800B0B59CB00CAF1F4807F084F84FF40041D0
:100E58001D4800F098FC01233B703B4602331B4AB7
:100E68001D4614460FCC28606960AA60EB60238891
:100E78002B826D4607F110040FCC0FC50FCC0FC5A0
:100E880094E80F0085E80F003B460FCBFFF7B6FF4D
:100E98000F4B00221A703B460233402219460D4878
:100EA80007F040F900BF0A4B1B78002BFBD00A4B18
:100EB8001B6840221946094807F034F900BF40373B
:100EC800BD46B0BDE0850008000C0240F88500086A
:100ED800BC0200200003002074020020C002002091
:100EE80080B500AF00BF084B1B78002BFBD0074B29
:100EF8001B6819460648FFF763F90346002B01D023
:100F0800FFF754FC00BF80BD7C0200201C000020BD
:100F18007E020020B0B59CB00CAF02233B70104B92
:100F28001C680F4B1B681846FFF754F902463B46EE
:100F380002332146184607F0F5F86D4607F110040C
:100F48000FCC0FC50FCC0FC594E80F0085E80F0034
:100F58003B460FCBFFF752FF00BF4037BD46B0BD41
:100F68002000002080B500AFFFF7D4FF4022002109
:100F7800034807F0CFF8FFF7B3FF00BF80BD00BFFD
:100F88007C02002080B590B000AF3B464022002193
:100F9800184607F0BFF81B4B1B783B70194B5B7862
:100FA8007B70184B5B78023B042B27D801A252F8C0
:100FB80023F000BFD10F0008DB0F0008ED0F000879
:100FC800F30F0008FF0F0008FFF74BFB0346BB7049
:100FD80014E0FFF771FB0346BB70BB781846FFF7B8
:100FE800F5FA0BE0FFF781FB08E0064B9B78184603
:100FF800FFF70DFB02E0FFF722FB00BF00BF403701
:10100800BD4680BD7C020020B0B59EB00CAF4FF449
:101018008051174800F0B7FB164B3C1D1D460FCDFD
:101028000FC40FCD0FC40FCD0FC495E80F0084E88F
:101038000F000023A7F846300EE06D4607F11404B0
:101048000FCC0FC50FCC0FC594E80F0085E80F0033
:101058003B1D0FCBFFF7D2FEB7F8463044F61F62B0
:101068009342EAD900BF00BF4837BD46B0BD00BFB4
:10107800000C02400C860008DFF834D0FFF7ACFE05
:101088000C480D490D4A002302E0D458C4500433DB
:10109800C4188C42F9D30A4A0A4C002301E01360B1
:1010A8000432A242FBD307F0ADF8FFF791FB70477B
:1010B8000000022000000020C8010020CC860008A3
:1010C800C8010020AC0E0020FEE7000080B500AF8C
:1010D8000E4B1B680D4A43F4007313600B4B1B68DF
:1010E8000A4A43F480631360084B1B68074A43F4B9
:1010F80080731360032000F04FF90F2000F008F808
:10110800FFF7C8FC0023184680BD00BF003C024022
:1011180080B582B000AF7860124B1A68124B1B780A
:1011280019464FF47A73B3FBF1F3B2FBF3F31846A5
:1011380000F067F90346002B01D001230EE07B681D
:101148000F2B0AD8002279684FF0FF3000F02FF9F2
:10115800064A7B681360002300E00123184608371D
:10116800BD4680BD18000020280000202400002073
:1011780080B400AF064B1B781A46064B1B68134415
:10118800044A136000BFBD465DF8047B704700BF8A
:10119800280000204003002080B400AF034B1B68E8
:1011A8001846BD465DF8047B704700BF4003002029
:1011B80080B584B000AF7860FFF7EEFFB8607B6859
:1011C800FB60FB68B3F1FF3F05D00A4B1B781A465A
:1011D800FB681344FB6000BFFFF7DEFF0246BB68F5
:1011E800D31AFA689A42F7D800BF00BF1037BD4635
:1011F80080BD00BF2800002080B485B000AF7860B3
:101208007B6803F00703FB600C4BDB68BB60BA68C4
:101218004FF6FF031340BB60FB681A02BB68134319
:1012280043F0BF6343F40033BB60044ABB68D36038
:1012380000BF1437BD465DF8047B704700ED00E041
:1012480080B400AF044BDB681B0A03F007031846A1
:10125800BD465DF8047B704700ED00E080B483B0C4
:1012680000AF0346FB7197F90730002B0BDBFB79C6
:1012780003F01F02074997F907305B09012000FABC
:1012880002F241F8232000BF0C37BD465DF8047B0D
:10129800704700BF00E100E080B483B000AF0346B0
:1012A8003960FB7197F90730002B0ADB3B68DAB22B
:1012B8000C4997F907301201D2B20B4483F8002386
:1012C8000AE03B68DAB20849FB7903F00F03043BF4
:1012D8001201D2B20B441A7600BF0C37BD465DF836
:1012E800047B704700E100E000ED00E080B489B0C5
:1012F80000AFF860B9607A60FB6803F00703FB6130
:10130800FB69C3F10703042B28BF0423BB61FB69F6
:101318000433062B02D9FB69033B00E000237B6101
:101328004FF0FF32BB6902FA03F3DA43BB681A4095
:101338007B699A404FF0FF317B6901FA03F3D94387
:101348007B680B40134318462437BD465DF8047B81
:101358007047000080B582B000AF78607B68013BC1
:10136800B3F1807F01D301230FE00A4A7B68013B78
:1013780053600F214FF0FF30FFF78EFF054B00221F
:101388009A60044B07221A60002318460837BD46A6
:1013980080BD00BF10E000E080B582B000AF78608B
:1013A8007868FFF729FF00BF0837BD4680BD80B5C4
:1013B80086B000AF0346B9607A60FB7300237B6197
:1013C800FFF73EFF78617A68B9687869FFF78EFFA2
:1013D800024697F90F3011461846FFF75DFF00BF28
:1013E8001837BD4680BD80B582B000AF0346FB719B
:1013F80097F907301846FFF731FF00BF0837BD4699
:1014080080BD80B582B000AF78607868FFF7A2FF32
:10141800034618460837BD4680BD000080B489B031
:1014280000AF7860396000237B6100233B610023B3
:10143800BB610023FB616BE10122FB6902FA03F344
:101448007B613B681B687A6913403B613A697B6939
:101458009A4240F05A813B685B6803F00303012B12
:1014680005D03B685B6803F00303022B30D17B682F
:101478009B68BB61FB695B00032202FA03F3DB4351
:10148800BA691340BB613B68DA68FB695B0002FA22
:1014980003F3BA691343BB617B68BA699A607B68D6
:1014A8005B68BB610122FB6902FA03F3DB43BA699B
:1014B8001340BB613B685B681B0903F00102FB69D1
:1014C80002FA03F3BA691343BB617B68BA695A60CD
:1014D8003B685B6803F00303032B17D07B68DB686A
:1014E800BB61FB695B00032202FA03F3DB43BA69C1
:1014F8001340BB613B689A68FB695B0002FA03F31F
:10150800BA691343BB617B68BA69DA603B685B6898
:1015180003F00303022B23D1FB69DA087B68083246
:1015280053F82230BB61FB6903F007039B000F22CD
:1015380002FA03F3DB43BA691340BB613B681A69DB
:10154800FB6903F007039B0002FA03F3BA6913432C
:10155800BB61FB69DA087B680832B96943F8221075
:101568007B681B68BB61FB695B00032202FA03F31B
:10157800DB43BA691340BB613B685B6803F0030255
:10158800FB695B0002FA03F3BA691343BB617B682A
:10159800BA691A603B685B6803F44033002B00F0BB
:1015A800B4800023FB60604B5B6C5F4A43F480436C
:1015B80053645D4B5B6C03F48043FB60FB685B4AE0
:1015C800FB699B08023352F82330BB61FB6903F0C7
:1015D80003039B000F2202FA03F3DB43BA691340AB
:1015E800BB617B68524A93422BD07B68514A934235
:1015F80025D07B68504A93421FD07B684F4A93425C
:1016080019D07B684E4A934213D07B684D4A934267
:101618000DD07B684C4A934207D07B684B4A934273
:1016280001D107230EE008230CE006230AE0052376
:1016380008E0042306E0032304E0022302E0012378
:1016480000E00023FA6902F0030292009340BA69AD
:101658001343BB613549FB699B080233BA6941F8FA
:1016680023203B4B9B68BB613B69DB43BA69134052
:10167800BB613B685B6803F48013002B03D0BA6935
:101688003B691343BB61324ABB699360304BDB68EB
:10169800BB613B69DB43BA691340BB613B685B686C
:1016A80003F40013002B03D0BA693B691343BB61F1
:1016B800274ABB69D360264B5B68BB613B69DB4348
:1016C800BA691340BB613B685B6803F40033002BC5
:1016D80003D0BA693B691343BB611D4ABB695360B8
:1016E8001B4B1B68BB613B69DB43BA691340BB6199
:1016F8003B685B6803F48033002B03D0BA693B690D
:101708001343BB61124ABB691360FB690133FB6178
:10171800FB690F2B7FF690AE00BF00BF2437BD4694
:101728005DF8047B704700BF003802400038014074
:10173800000002400004024000080240000C024081
:10174800001002400014024000180240001C024031
:10175800003C014080B483B000AF78600B467B80CA
:1017680013467B707B78002B03D07A887B689A615C
:1017780003E07B881A047B689A6100BF0C37BD467A
:101788005DF8047B704780B485B000AF78600B4685
:101798007B807B685B69FB607A88FB6813401A046E
:1017A800FB68D9437B880B401A437B689A6100BF6A
:1017B8001437BD465DF8047B704780B586B002AF2C
:1017C80078607B68002B01D1012301E17B681B68ED
:1017D800BB607B6893F89534DBB2002B06D17B683D
:1017E800002283F89424786805F0F0FE7B680322D1
:1017F80083F89524BB68B3F1A04F02D17B6800221F
:101808009A717B681B68184602F061FC7B6818684F
:101818007B681A7C8DF8002004330ECB02F040FB65
:101828000346002B05D07B68022283F89524012308
:10183800CEE07B681B680021184602F059FC03467D
:10184800002B05D07B68022283F895240123BFE092
:101858000023FB734AE0FA7B79681346DB001344E4
:101868009B000B44153301221A70FA7B79681346E2
:10187800DB0013449B000B441433FA7B1A70FA7B89
:10188800FB7B98B279681346DB0013449B000B443A
:101898002E3302461A80FA7B79681346DB0013441C
:1018A8009B000B44183300221A70FA7B79681346A0
:1018B800DB0013449B000B441C3300221A60FA7BA4
:1018C80079681346DB0013449B000B442033002245
:1018D8001A60FA7B79681346DB0013449B000B44BB
:1018E800243300221A60FB7B0133FB737B681B796E
:1018F800FA7B9A42AFD30023FB7344E0FA7B796802
:101908001346DB0013449B000B4403F255230022CB
:101918001A70FA7B79681346DB0013449B000B446A
:1019280003F51573FA7B1A70FA7B79681346DB00A6
:1019380013449B000B4403F5167300221A70FA7BBC
:1019480079681346DB0013449B000B4403F51773B7
:1019580000221A60FA7B79681346DB0013449B0067
:101968000B4403F5187300221A60FA7B7968134652
:10197800DB0013449B000B4403F5197300221A6023
:10198800FB7B0133FB737B681B79FA7B9A42B5D3E7
:101998007B6818687B681A7C8DF8002004330ECBAE
:1019A80002F0F2FB0346002B05D07B68022283F885
:1019B800952401230CE07B6800225A747B6801227D
:1019C80083F895247B681B68184603F036FC0023CF
:1019D80018461037BD4680BD80B584B000AF78602A
:1019E8007B681B68FB607B6893F89434012B01D1FA
:1019F800022322E07B68012283F89424FB68DB68D9
:101A080003F04003002B09D07B685B7B012B05D1D9
:101A1800FB689B6B43F48032FB689A637B681B68A6
:101A2800184602F043FB7B681B68184603F0E4FB8A
:101A38007B68002283F89424002318461037BD469B
:101A480080BD90B58DB000AF78607B681B683B6245
:101A58003B6AFB617B681B68184603F0A2FC0346DF
:101A6800002B40F08C847B681B68184603F006FC4A
:101A78000346002B00F08284FB6903F500639B6832
:101A88001B0AC3F30D027B68C3F8D4247B681B6868
:101A9800184603F0F3FB034603F00203022B07D1B9
:101AA8007B681B685A697B681B6802F002025A61EE
:101AB8007B681B68184603F0E1FB034603F010033C
:101AC800102B61D17B681B689A697B681B6822F0C0
:101AD80010029A613B6A1B6ABB61BB6903F00F0283
:101AE8001346DB0013449B0003F514737A68134410
:101AF80004337B61BB695B0C03F00F03022B24D119
:101B0800BA6947F6F0731340002B35D07B69D96862
:101B1800BB691B099BB2C3F30A039BB21A46386A16
:101B280003F018FA7B69DA68BB691B09C3F30A0377
:101B38001A447B69DA607B695A69BB691B09C3F37C
:101B48000A031A447B695A6116E0BB695B0C03F00F
:101B58000F03062B10D17B6803F29C430822194619
:101B6800386A03F0F7F97B695A69BB691B09C3F343
:101B78000A031A447B695A617B681B689A697B6807
:101B88001B6842F010029A617B681B68184603F0D4
:101B980075FB034603F40023B3F5002F40F0A7803C
:101BA80000237B627B681B68184603F07AFBB862E7
:101BB80099E0BB6A03F00103002B00F08E807B687C
:101BC8001B687A6AD2B21146184603F09EFB386148
:101BD8003B6903F00103002B0CD07B6A5A01FB69B7
:101BE800134403F530631A4601239360796A7868D1
:101BF80000F08AFE3B6903F00803002B0CD07B6AD7
:101C08005A01FB69134403F530631A4608239360AD
:101C1800796A786800F060FF3B6903F01003002BD5
:101C280008D07B6A5A01FB69134403F530631A46EE
:101C3800102393603B6903F00203002B30D03B6A0A
:101C48005B6903F08003802B09D1FB6903F500630E
:101C58005B68FA6902F5006243F4806353607A6A4C
:101C68001346DB0013449B0003F514737A6813448E
:101C780004337B617B69DB78012B08D17B69002207
:101C8800DA707B6ADBB21946786805F0A5FD7B6AD5
:101C98005A01FB69134403F530631A460223936023
:101CA8003B6903F02003002B08D07B6A5A01FB69CB
:101CB800134403F530631A46202393603B6903F409
:101CC8000053002B09D07B6A5A01FB69134403F5C2
:101CD80030631A464FF4005393607B6A01337B628A
:101CE800BB6A5B08BB62BB6A002B7FF462AF7B6890
:101CF8001B68184603F0C2FA034603F48023B3F5C1
:101D0800802F40F0DB807B681B68184603F0E3FAFD
:101D1800B86200237B62CDE0BB6A03F00103002BAD
:101D280000F0C2807B681B687A6AD2B211461846F6
:101D380003F009FB38613B6903F00103002B57D01E
:101D48007B6A03F00F03012202FA03F3FB60FB69CD
:101D580003F500635A6BFB68DB43F96901F5006121
:101D680013404B637B6A5A01FB69134403F5106304
:101D78001A46012393607B689B79012B32D17968DD
:101D88007A6A1346DB0013449B000B44203319681E
:101D980078687A6A1346DB0013449B0003441C33BB
:101DA8001B68194478687A6A1346DB0013449B0061
:101DB8000344203319607B6A002B13D179687A6A4F
:101DC8001346DB0013449B000B4424331B68002B91
:101DD80008D17B6818687B6803F29C431A46012186
:101DE80003F010FB7B6ADBB21946786805F06FFCDC
:101DF8003B6903F00803002B08D07B6A5A01FB6992
:101E0800134403F510631A46082393603B6903F0F3
:101E18001003002B08D07B6A5A01FB69134403F5B1
:101E280010631A46102393603B6903F04003002BAC
:101E380008D07B6A5A01FB69134403F510631A46FC
:101E4800402393603B6903F00203002B23D0796A97
:101E5800386A02F0FDFA7A6A1346DB0013449B00E5
:101E680010337A68134404337B617B69DB78012B78
:101E780008D17B690022DA707B6ADBB21946786880
:101E880005F0BCFC7B6A5A01FB69134403F5106337
:101E98001A46022393603B6903F08003002B03D0AA
:101EA800796A786800F0A3FC7B6A01337B62BB6ABD
:101EB8005B08BB62BB6A002B7FF42EAF7B681B6894
:101EC800184603F0DBF9034603F00043B3F1004F73
:101ED80022D1FB6903F500635B68FA6902F50062C9
:101EE80023F0010353607B6893F8CC34012B08D1AD
:101EF8007B68002283F8CC240021786800F08AFEF1
:101F080002E0786805F05AFC7B681B685A697B68B0
:101F18001B6802F000425A617B681B68184603F090
:101F2800ADF9034603F40063B3F5006F12D1FB6902
:101F380003F500639B6803F00103012B02D1786865
:101F480005F016FC7B681B685A697B681B6802F4FD
:101F580000625A617B681B68184603F08FF90346D4
:101F680003F48053B3F5805F40F0B780FB6903F555
:101F780000635B68FA6902F5006223F001035360AD
:101F88007B681B681021184602F062FA0023FB6286
:101F980046E0FB6A5A01FB69134403F510631A46CD
:101FA8004FF67F339360FB6A5A01FB69134403F5CC
:101FB80010631B68FA6A5101FA690A4402F5106253
:101FC80023F400131360FB6A5A01FB69134403F5F9
:101FD80030631A464FF67F339360FB6A5A01FB69F8
:101FE800134403F530631B68FA6A5101FA690A441D
:101FF80002F5306223F400131360FB6A5A01FB698F
:10200800134403F530631B68FA6A5101FA690A44FC
:1020180002F5306243F000631360FB6A0133FB6230
:102028007B681B791A46FB6A9342B2D3FB6903F5B6
:102038000063DB69FA6902F5006243F00113D361BA
:102048007B68DB7B002B16D0FB6903F50063D3F8B4
:102058008430FA6902F5006243F00B03C2F8843059
:10206800FB6903F500635B6CFA6902F5006243F0F3
:102078000B03536415E0FB6903F500635B69FA69B8
:1020880002F5006243F4005343F02B035361FB69EC
:1020980003F500631B69FA6902F5006243F00B035C
:1020A8001361FB6903F500631B68FA6902F50062B6
:1020B80023F4FE6313607B6818687B6899797B68F2
:1020C80003F29C431A4603F09DF97B681B685A6922
:1020D8007B681B6802F480525A617B681B6818464B
:1020E80003F0CCF8034603F40053B3F5005F23D1A3
:1020F8007B681B68184603F062F97B681B68184602
:1021080002F01FFA03461A467B68DA717B681C687E
:1021180001F0F0F901467B68DB791A46204601F0A8
:1021280023FF786805F0FBFA7B681B685A697B68AF
:102138001B6802F400525A617B681B68184603F05A
:102148009DF8034603F00803082B0AD1786805F0C8
:10215800D8FA7B681B685A697B681B6802F008021A
:102168005A617B681B68184603F088F8034603F039
:102178008003802B23D13B6A9B6923F080023B6A52
:102188009A6101237B6214E079687A6A1346DB005E
:1021980013449B000B4403F257231B78012B05D1F2
:1021A8007B6ADBB21946786800F0F0FA7B6A013383
:1021B8007B627B681B791A467B6A9342E4D37B680F
:1021C8001B68184603F05AF8034603F48013B3F566
:1021D800801F3CD101237B622BE07B6A5A01FB699B
:1021E800134403F510631B68BB6179687A6A134668
:1021F800DB0013449B000B4418331B78012B15D1CB
:10220800BB69002B12DA79687A6A1346DB0013443B
:102218009B000B44173301221A707B6ADBB263F010
:102228007F03DBB21946786800F0B0FA7B6A0133A5
:102238007B627B681B791A467B6A9342CDD37B68A5
:102248001B685A697B681B6802F480125A617B68B4
:102258001B68184603F012F8034603F40013B3F59D
:10226800001F56D101237B6245E07B6A5A01FB6956
:10227800134403F530631B68BB6179687A6A1346B7
:10228800DB0013449B000B4403F516731B78012BEA
:102298002ED1BB69002B2BDABB6903F480327B6833
:1022A800D3F8D43403F001039A4221D179687A6AC9
:1022B8001346DB0013449B000B4403F2572301220F
:1022C8001A703B6A9B6943F080023B6A9A613B6AD9
:1022D8005B6903F08003002B0AD1FB6903F50063F7
:1022E8005B68FA6902F5006243F40073536008E022
:1022F8007B6A01337B627B681B791A467B6A93424F
:10230800B3D37B681B685A697B681B6802F40012A8
:102318005A617B681B68184602F0B0FF034603F059
:102328008043B3F1804F0AD1786805F079FA7B6869
:102338001B685A697B681B6802F080425A617B6897
:102348001B68184602F09AFF034603F00403042BA7
:1023580015D17B681B685B68BB61BB6903F004032C
:10236800002B02D0786805F069FA7B681B68596809
:102378007B681B68BA690A435A6000E000BF3437BB
:10238800BD4690BD80B582B000AF78600B46FB704B
:102398007B6893F89434012B01D1022312E07B6807
:1023A800012283F894247B68FA785A747B681B6846
:1023B800FA781146184602F0F9FE7B68002283F885
:1023C8009424002318460837BD4680BD80B584B0E4
:1023D80000AF7860084611461A460346FB700B4664
:1023E8003B801346BB700023FB7297F90330002B28
:1023F8000FDAFB7803F00F021346DB0013449B004F
:1024080010337A6813440433FB60FB6801225A7066
:102418000FE0FB7803F00F021346DB0013449B0028
:1024280003F514737A6813440433FB60FB680022D5
:102438005A70FB7803F00F03DAB2FB681A703A8817
:10244800FB689A60FB68BA781A71FB685B78002BA6
:1024580004D0FB681B789AB2FB685A83BB78022BBE
:1024680002D1FB6800225A717B6893F89434012BDF
:1024780001D102230EE07B68012283F894247B6853
:102488001B68F968184602F081F87B68002283F817
:102498009424FB7A18461037BD4680BD80B584B0B9
:1024A80000AF78600B46FB7097F90330002B0FDA0A
:1024B800FB7803F00F021346DB0013449B00103334
:1024C8007A6813440433FB60FB6801225A700FE0FA
:1024D800FB7803F00F021346DB0013449B0003F55F
:1024E80014737A6813440433FB60FB6800225A7043
:1024F800FB7803F00F03DAB2FB681A707B6893F875
:102508009434012B01D102230EE07B68012283F869
:1025180094247B681B68F968184602F0BFF87B684A
:10252800002283F89424002318461037BD4680BD46
:1025380080B586B000AFF8607A603B600B46FB72EE
:10254800FB7A03F00F021346DB0013449B0003F5EC
:102558001473FA68134404337B617B697A68DA6020
:102568007B693A681A617B6900225A617B6900229B
:102578005A70FB7A03F00F03DAB27B691A70FB68B2
:102588009B79012B02D17A687B69DA61FB6818684C
:10259800FB689B791A46796902F05CF900231846B2
:1025A8001837BD4680BD80B586B000AFF8607A6048
:1025B8003B600B46FB72FB7A03F00F021346DB000D
:1025C80013449B001033FA68134404337B617B691E
:1025D8007A68DA607B693A681A617B6900225A6115
:1025E8007B6901225A70FB7A03F00F03DAB27B6928
:1025F8001A70FB689B79012B02D17A687B69DA61D2
:10260800FB681868FB689B791A46796902F022F919
:10261800002318461837BD4680BD80B584B000AF8A
:1026280078600B46FB70FB7803F00F037A68127929
:10263800934201D901234FE097F90330002B0FDAB9
:10264800FB7803F00F021346DB0013449B001033A2
:102658007A6813440433FB60FB6801225A700DE06A
:10266800FA781346DB0013449B0003F514737A6869
:1026780013440433FB60FB6800225A70FB68012294
:102688009A70FB7803F00F03DAB2FB681A707B6864
:1026980093F89434012B01D102231DE07B680122B9
:1026A80083F894247B681B68F968184602F0AAFC32
:1026B800FB7803F00F03002B09D17B6818687B684F
:1026C80099797B6803F29C431A4602F09BFE7B686B
:1026D800002283F89424002318461037BD4680BD95
:1026E80080B584B000AF78600B46FB70FB7803F0D0
:1026F8000F037A681279934201D9012342E097F9CE
:102708000330002B0FDAFB7803F00F021346DB00CF
:1027180013449B0010337A6813440433FB60FB684E
:1027280001225A700FE0FB7803F00F021346DB001A
:1027380013449B0003F514737A6813440433FB6055
:10274800FB6800225A70FB6800229A70FB7803F03D
:102758000F03DAB2FB681A707B6893F89434012B84
:1027680001D102230EE07B68012283F894247B6860
:102778001B68F968184602F0B3FC7B68002283F8EE
:102788009424002318461037BD4680BD80B584B018
:1027980000AF78600B46FB7097F90330002B0CDA1A
:1027A800FB7803F00F021346DB0013449B00103341
:1027B8007A6813440433FB600CE0FB7803F00F02E3
:1027C8001346DB0013449B0003F514737A68134423
:1027D8000433FB607B681B68F968184602F0D2FA7C
:1027E8000346FB72FB7A18461037BD4680BD80B59C
:1027F8008AB002AF786039607B681B687B617B694F
:102808003B613A681346DB0013449B0010337A6837
:1028180013440433FB60FB685A69FB681B699A42DE
:1028280001D901236BE0FB681A69FB685B69D31A5D
:10283800FB61FB689B68FA699A4202D9FB689B684E
:10284800FB61FB6903339B08BB612AE0FB681A69DB
:10285800FB685B69D31AFB61FB689B68FA699A425B
:1028680002D9FB689B68FB61FB6903339B08BB616A
:10287800FB68D9683B68DAB2FB6998B27B689B79D8
:1028880000930346786902F027FBFB68DA68FB6966
:102898001A44FB68DA60FB685A69FB691A44FB68EA
:1028A8005A613B685A013B69134403F510639B69FD
:1028B8009BB2BA699A4209D8FB685A69FB681B69D6
:1028C8009A4203D2FB681B69002BBFD1FB681A69C7
:1028D800FB685B699A4211D83B6803F00F03012239
:1028E80002FA03F3BB603B6903F500635A6BBB68EC
:1028F800DB43396901F5006113404B630023184637
:102908002037BD4680BD000080B588B000AF786034
:1029180039607B681B68FB61FB69BB61FB693C3301
:1029280004331B687B613B685A01BB69134403F598
:1029380030639B683B617B689B79012B7BD13B694A
:1029480003F00803002B15D07B69614A934240F2DB
:10295800B9803B6903F40043002B00F0B3803B6867
:102968005A01BB69134403F530631A464FF4004318
:102978009360A7E03B6903F02003002B09D03B6874
:102988005A01BB69134403F530631A462023936048
:1029980098E03B6903F02803002B40F093807B69A3
:1029A8004B4A93420FD93B6903F40043002B0AD0EA
:1029B8003B685A01BB69134403F530631A464FF468
:1029C800004393607EE03A681346DB0013449B00A3
:1029D80003F514737A6813440433FB60FB681A6ABE
:1029E8003B685901BB690B4403F530631B69C3F3AA
:1029F8001203D21AFB685A613B68002B14D1FB689A
:102A08001B69002B09D17B6818687B6803F29C431B
:102A18001A46012102F0F6FC06E0FB68DA68FB685A
:102A28005B691A44FB68DA603B68DBB21946786870
:102A380004F032FE46E07B69264A934224D13B6982
:102A480003F40043002B0AD03B685A01BB691344C6
:102A580003F530631A464FF40043936032E03B6954
:102A680003F02003002B08D03B685A01BB691344CC
:102A780003F530631A46202393603B68DBB219469E
:102A8800786804F009FE1DE03B68002B14D17968D2
:102A98003A681346DB0013449B000B4403F5197393
:102AA8001B68002B08D17B6818687B6803F29C437D
:102AB8001A46002102F0A6FC3B68DBB2194678688A
:102AC80004F0EAFD002318462037BD4680BD00BF4C
:102AD8000A30544F0A31544F80B586B000AF786041
:102AE80039607B681B687B617B693B617B693C3330
:102AF80004331B68FB603B685A013B69134403F5C8
:102B080030639B68BB60FB68154A93420ED9BB686B
:102B180003F40043002B09D03B685A013B69134476
:102B280003F530631A464FF400439360786804F065
:102B3800A1FDFB680A4A93420CD97B689B79012B5B
:102B480008D17B6818687B6803F29C431A46012108
:102B580002F058FC002318461837BD4680BD00BF58
:102B68000A30544F80B485B000AF78600B46FB70D4
:102B780013463B807B681B685B6ABB60FB78002B55
:102B880007D13B8819047B681B68BA680A439A62B4
:102B980028E07B681B689B6A1B0CBA681344BB60FF
:102BA8000023FB730DE07B681A68FB7B40339B00B6
:102BB80013445B681B0CBA681344BB60FB7B01338E
:102BC800FB73FA7BFB78013B9A42ECD33B881804F1
:102BD8007B681968FB78013BBA68024340339B0065
:102BE8000B445A60002318461437BD465DF8047B31
:102BF800704780B483B000AF78600B467B807B68F9
:102C08001B687A885A62002318460C37BD465DF85F
:102C1800047B704780B483B000AF78600B46FB70CC
:102C280000BF0C37BD465DF8047B704780B586B0A1
:102C380000AF78607B68002B01D1012367E27B68D5
:102C48001B6803F00103002B75D0884B9B6803F0C9
:102C58000C03042B0CD0854B9B6803F00C03082B4A
:102C680012D1824B5B6803F48003B3F5800F0BD15C
:102C78007E4B1B6803F40033002B5BD07B685B68DA
:102C8800002B57D1012342E27B685B68B3F5803F94
:102C980006D1764B1B68754A43F4803313601DE0F8
:102CA8007B685B68B3F5A02F0CD1704B1B686F4A2B
:102CB80043F4802313606D4B1B686C4A43F48033E4
:102CC80013600BE0694B1B68684A23F48033136078
:102CD800664B1B68654A23F4802313607B685B6836
:102CE800002B13D0FEF758FA386108E0FEF754FAC3
:102CF80002463B69D31A642B01D9032307E25B4BD5
:102D08001B6803F40033002BF0D014E0FEF744FAFC
:102D1800386108E0FEF740FA02463B69D31A642B93
:102D280001D90323F3E1514B1B6803F40033002B53
:102D3800F0D100E000BF7B681B6803F00203002BA2
:102D480063D04A4B9B6803F00C03002B0BD0474B16
:102D58009B6803F00C03082B1CD1444B5B6803F4FD
:102D68008003002B16D1414B1B6803F00203002B94
:102D780005D07B68DB68012B01D00123C7E13B4B01
:102D88001B6823F0F8027B681B69DB003749134393
:102D98000B603AE07B68DB68002B20D0344B0122C3
:102DA8001A60FEF7F9F9386108E0FEF7F5F902460E
:102DB8003B69D31A022B01D90323A8E12B4B1B68CB
:102DC80003F00203002BF0D0284B1B6823F0F80215
:102DD8007B681B69DB00254913430B6015E0244B16
:102DE80000221A60FEF7D8F9386108E0FEF7D4F936
:102DF80002463B69D31A022B01D9032387E11B4BF7
:102E08001B6803F00203002BF0D17B681B6803F0FA
:102E18000803002B36D07B685B69002B16D0154B56
:102E280001221A60FEF7B8F9386108E0FEF7B4F934
:102E380002463B69D31A022B01D9032367E10B4BE6
:102E48005B6F03F00203002BF0D01BE0094B00225C
:102E58001A60FEF7A1F938610EE0FEF79DF9024607
:102E68003B69D31A022B07D9032350E100380240EB
:102E780000004742800E4742884B5B6F03F0020315
:102E8800002BEAD17B681B6803F00403002B00F0D9
:102E980097800023FB75814B1B6C03F08053002B3C
:102EA8000FD10023BB607D4B1B6C7C4A43F08053E1
:102EB80013647A4B1B6C03F08053BB60BB6801231F
:102EC800FB75774B1B6803F48073002B18D1744B88
:102ED8001B68734A43F480731360FEF75DF9386129
:102EE80008E0FEF759F902463B69D31A022B01D9CB
:102EF80003230CE16A4B1B6803F48073002BF0D0AA
:102F08007B689B68012B06D1644B1B6F634A43F0B7
:102F1800010313671CE07B689B68052B0CD15F4B92
:102F28001B6F5E4A43F0040313675C4B1B6F5B4ADD
:102F380043F0010313670BE0584B1B6F574A23F00C
:102F480001031367554B1B6F544A23F0040313679F
:102F58007B689B68002B15D0FEF71EF938610AE0E4
:102F6800FEF71AF902463B69D31A41F288329342B6
:102F780001D90323CBE0494B1B6F03F00203002B5D
:102F8800EED014E0FEF708F938610AE0FEF704F91C
:102F980002463B69D31A41F28832934201D903238E
:102FA800B5E03E4B1B6F03F00203002BEED1FB7D17
:102FB800012B05D1394B1B6C384A23F0805313641D
:102FC8007B689B69002B00F0A180344B9B6803F061
:102FD8000C03082B5CD07B689B69022B41D1314BD9
:102FE80000221A60FEF7D8F8386108E0FEF7D4F836
:102FF80002463B69D31A022B01D9032387E0274BEA
:103008001B6803F00073002BF0D17B68DA697B68DA
:103018001B6A1A437B685B6A9B011A437B689B6A3D
:103028005B08013B1B041A437B68DB6A1B061B49D0
:1030380013434B601B4B01221A60FEF7ADF8386151
:1030480008E0FEF7A9F802463B69D31A022B01D91A
:1030580003235CE0114B1B6803F00073002BF0D0D6
:1030680054E0104B00221A60FEF796F8386108E029
:10307800FEF792F802463B69D31A022B01D90323C3
:1030880045E0064B1B6803F00073002BF0D13DE0D0
:103098007B689B69012B07D1012338E00038024087
:1030A80000700040600047421B4B5B68FB607B6818
:1030B8009B69012B28D0FB6803F480027B68DB69DD
:1030C8009A4221D1FB6803F03F027B681B6A9A424F
:1030D8001AD1FA6847F6C07313407A68526A9201A7
:1030E800934211D1FB6803F440327B689B6A5B080A
:1030F800013B1B049A4207D1FB6803F070627B68AE
:10310800DB6A1B069A4201D0012300E0002318461F
:103118001837BD4680BD00BF0038024080B584B076
:1031280000AF786039607B68002B01D10123CCE0C7
:10313800684B1B6803F007033A689A420CD9654B41
:103148003A68D2B21A70634B1B6803F007033A68F7
:103158009A4201D00123B8E07B681B6803F00203A0
:10316800002B20D07B681B6803F00403002B05D0DC
:10317800594B9B68584A43F4E05393607B681B683B
:1031880003F00803002B05D0534B9B68524A43F4C5
:1031980060439360504B9B6823F0F0027B689B6808
:1031A8004D4913438B607B681B6803F00103002BB8
:1031B80044D07B685B68012B07D1474B1B6803F43D
:1031C8000033002B19D101237FE07B685B68022B59
:1031D80003D07B685B68032B07D13F4B1B6803F068
:1031E8000073002B09D101236FE03B4B1B6803F0F0
:1031F8000203002B01D1012367E0374B9B6823F0C2
:1032080003027B685B68344913438B60FDF7C4FF96
:10321800F8600AE0FDF7C0FF0246FB68D31A41F2E6
:103228008832934201D903234FE02B4B9B6803F06C
:103238000C027B685B689B009A42EBD1254B1B68AC
:1032480003F007033A689A420CD2224B3A68D2B28A
:103258001A70204B1B6803F007033A689A4201D0A2
:10326800012332E07B681B6803F00403002B08D0BD
:10327800194B9B6823F4E0527B68DB6816491343BB
:103288008B607B681B6803F00803002B09D0124B86
:103298009B6823F460427B681B69DB000E4913437B
:1032A8008B6000F021F802460B4B9B681B0903F06A
:1032B8000F030A49CB5C22FA03F3094A1360094B4E
:1032C8001B681846FDF724FF002318461037BD4633
:1032D80080BD00BF003C02400038024090860008D4
:1032E80018000020240000202DE9B04F94B000AF52
:1032F80000237B640023FB6400233B640023BB643E
:10330800794B9B6803F00C03082B0DD0082B00F2B7
:10331800E180002B02D0042B03D0DBE0734BBB64AD
:10332800DBE0734BBB64D8E06F4B5B6803F03F0393
:103338007B646D4B5B6803F48003002B63D06A4B9E
:103348005B689B090022BB63FA63BB6BC3F308038A
:103358003B6300237B63D7E90C4522462B464FF09D
:1033680000004FF00001590141EAD26150010246C4
:103378000B462146511A3961294663EB01037B61EB
:103388004FF000024FF00003D7E904AB59468B0118
:10339800514643EA916351468A015146B2EB01080E
:1033A800594663EB01094FF000024FF000034FEA62
:1033B800C90343EA58734FEAC80290469946234620
:1033C80018EB0303BB602B4649EB0303FB604FF08C
:1033D80000024FF00003D7E9024529464B02214677
:1033E80043EAD15321464A02104619467B6C002213
:1033F800BB62FA62D7E90A23FCF7F4FE02460B46E1
:103408001346FB6458E0384B5B689B09002218465A
:103418001146C0F308033B6200237B62D7E90889A1
:1034280042464B464FF000004FF00001590141EA77
:10343800D261500102460B464146B2EB010A4946A9
:1034480063EB010B4FF000024FF000034FEA8B13C0
:1034580043EA9A634FEA8A12B2EB0A0463EB0B055C
:103468004FF000024FF00003EB0043EA5473E20010
:1034780014461D464346E3183B604B4645EB0303A1
:103488007B604FF000024FF00003D7E90045294662
:103498008B02214643EA915321468A021046194677
:1034A8007B6C0022BB61FA61D7E90623FCF79AFE20
:1034B80002460B461346FB640B4B5B681B0C03F080
:1034C800030301335B003B64FA6C3B6CB2FBF3F320
:1034D800BB6402E0054BBB6400BFBB6C18465037A9
:1034E800BD46BDE8B08F00BF003802400024F4009C
:1034F80000127A0080B400AF034B1B681846BD4623
:103508005DF8047B704700BF1800002080B500AF4D
:10351800FFF7F0FF0246054B9B689B0A03F0070381
:103528000349CB5C22FA03F3184680BD00380240F9
:10353800A086000880B500AFFFF7DCFF0246054B08
:103548009B685B0B03F007030349CB5C22FA03F388
:10355800184680BD00380240A086000880B582B0B9
:1035680000AF78607B68002B01D1012342E07B68C3
:1035780093F84130DBB2002B06D17B68002283F838
:1035880040207868FDF7AEFA7B68242283F8412052
:103598007B681B68DA687B681B6822F40052DA6073
:1035A800786800F009FA7B681B681A697B681B68F1
:1035B80022F490421A617B681B685A697B681B6811
:1035C80022F02A025A617B681B68DA687B681B68EC
:1035D80042F40052DA607B6800225A647B68202239
:1035E80083F841207B68202283F842207B680022F0
:1035F8005A63002318460837BD4680BD80B58AB097
:1036080002AFF860B9603B601346FB8000237B6122
:10361800FB6893F84130DBB2202B75D1BB68002BD7
:1036280002D0FB88002B01D101236EE0FB68002249
:103638005A64FB68212283F84120FDF7ADFD7861CB
:10364800FB68FA889A84FB68FA88DA84FB689B68C6
:10365800B3F5805F08D1FB681B69002B04D10023F8
:10366800FB61BB68BB6103E0BB68FB610023BB6116
:103678002EE03B6800937B6900228021F86800F007
:10368800DFF80346002B05D0FB68202283F8412091
:1036980003233AE0FB69002B0BD1BB691B881A4650
:1036A800FB681B68C2F308025A60BB690233BB613E
:1036B80007E0FB691A78FB681B685A60FB690133ED
:1036C800FB61FB68DB8C9BB2013B9AB2FB68DA8436
:1036D800FB68DB8C9BB2002BCBD13B6800937B69EA
:1036E80000224021F86800F0ABF80346002B05D013
:1036F800FB68202283F84120032306E0FB68202290
:1037080083F84120002300E0022318462037BD46F5
:1037180080BD80B58AB002AFF860B9603B601346DF
:10372800FB8000237B61FB6893F84230DBB2202BDF
:1037380040F08180BB68002B02D0FB88002B01D1B0
:10374800012379E0FB6800225A64FB68222283F88F
:103758004220FB6800221A63FDF71EFD7861FB68B2
:10376800FA889A85FB68FA88DA85FB689B68B3F55E
:10377800805F08D1FB681B69002B04D10023FB6123
:10378800BB68BB6103E0BB68FB610023BB6147E02A
:103798003B6800937B6900222021F86800F050F80C
:1037A8000346002B05D0FB68202283F84220032320
:1037B80042E0FB69002B0CD1FB681B685B689BB27D
:1037C800C3F308039AB2BB691A80BB690233BB61B1
:1037D8001FE0FB689B68B3F5805F07D0FB689B68B8
:1037E800002B0AD1FB681B69002B06D1FB681B68FC
:1037F8005B68DAB2FB691A7008E0FB681B685B68F3
:10380800DBB203F07F03DAB2FB691A70FB6901339C
:10381800FB61FB68DB8D9BB2013B9AB2FB68DA85E2
:10382800FB68DB8D9BB2002BB2D1FB68202283F8AA
:103838004220002300E0022318462037BD4680BD01
:1038480080B586B000AFF860B9603B601346FB7185
:103858003BE03B6AB3F1FF3F37D0FDF79DFC0246E2
:103868003B68D31A3A6A9A4202D33B6A002B01D1C9
:1038780003233AE0FB681B68DB6803F00403002BB2
:1038880023D0BB68802B20D0BB68402B1DD0FB68A1
:103898001B681B6803F00803082B16D100237B6103
:1038A800FB681B681B687B61FB681B685B687B6146
:1038B8007B69F86800F01DF8FB6808225A64FB6809
:1038C800002283F8402001230FE0FB681B681A6878
:1038D800BB681340BA689A420CBF01230023DBB2CD
:1038E8001A46FB799A42B4D0002318461837BD46C9
:1038F80080BD80B495B000AF78607B681B680C33DE
:103908007B637B6B53E8003F3B633B6B23F4907313
:10391800FB647B681B680C33FA6C3A64FB63F96BD5
:103928003A6C41E80023BB63BB6B002BE5D17B6895
:103938001B6814333B623B6A53E8003FFB61FB6939
:1039480023F00103BB647B681B681433BA6CFA620A
:10395800BB62B96AFA6A41E800237B627B6A002B82
:10396800E5D17B681B6B012B19D17B681B680C3375
:10397800FB60FB6853E8003FBB60BB6823F01003A3
:103988007B647B681B680C337A6CBA617B617969EC
:10399800BA6941E800233B613B69002BE5D17B68AC
:1039A800202283F842207B6800221A6300BF543724
:1039B800BD465DF8047B70472DE9B04FC0B000AF3D
:1039C800C7F8F400D7F8F4301B681B6923F440509B
:1039D800D7F8F430D968D7F8F4301A6840EA010308
:1039E8001361D7F8F4309A68D7F8F4301B691A4392
:1039F800D7F8F4305B691A43D7F8F430DB6913431E
:103A0800C7F8F830D7F8F4301B68DB6823F41641A0
:103A180021F00C01D7F8F4301A68D7F8F8300B43C6
:103A2800D360D7F8F4301B685B6923F44070D7F88B
:103A3800F4309969D7F8F4301A6840EA0103536101
:103A4800D7F8F4301A688F4B9A4205D0D7F8F4307B
:103A58001A688D4B9A4204D1FFF76CFDC7F8FC0039
:103A680003E0FFF753FDC7F8FC00D7F8F430DB6933
:103A7800B3F5004F40F00C81D7F8FC300022C7F8AE
:103A8800E830C7F8EC20D7E93A4522462B4691188A
:103A9800B9655B41FB65D7E91623214612EB01089E
:103AA800294643EB01094FF000024FF000034FEAAB
:103AB800C90343EA58734FEAC80290469946234619
:103AC80018EB0303C7F8E0302B4649EB0303C7F8AC
:103AD800E430D7F8F4305B680022C7F8D830C7F86C
:103AE800DC20D7E936120B46DB183B65134642EB60
:103AF80003037B65D7E91423D7E93801FCF772FB88
:103B080002460B46614BA3FB02235B091C01D7F855
:103B1800FC300022C7F8D030C7F8D420D7E9348960
:103B280042464B469118B9645B41FB64D7E91223BE
:103B3800414612EB010A494643EB010B4FF00002E4
:103B48004FF000034FEACB0343EA5A734FEACA0225
:103B580092469B4643461AEB0303C7F8C8304B46C8
:103B68004BEB0303C7F8CC30D7F8F4305B6800227E
:103B7800C7F8C030C7F8C420D7E930120B46DB18A5
:103B88003B64134642EB03037B64D7E91023D7E970
:103B98003201FCF727FB02460B4611463B4BA3FBC1
:103BA80001235B09642202FB03F3CB1ADB0003F158
:103BB8003202364BA3FB02235B095B0003F4F87364
:103BC8001C44D7F8FC300022C7F8B830C7F8BC202E
:103BD800D7E92E8942464B469118B9635B41FB638E
:103BE800D7E90E2341465118396349464B417B6357
:103BF8004FF000024FF00003D7E90CAB5946CB0059
:103C0800514643EA51735146CA00104619460346C5
:103C180042469B18C7F8B0304B460A4642EB0303AE
:103C2800C7F8B430D7F8F4305B680022C7F8A8307A
:103C3800C7F8AC20D7E92A120B46DB18BB6213463B
:103C480042EB0303FB62D7E90A23D7E92C01FCF70F
:103C5800C9FA02460B460D4BA3FB02135B0964210C
:103C680001FB03F3D31ADB003233084AA2FB032318
:103C78005B0903F00702D7F8F4301B6822449A6006
:103C880006E100BF00100140001401401F85EB5100
:103C9800D7F8FC300022C7F8A030C7F8A420D7E92D
:103CA800288942464B46911839625B417B62D7E9C5
:103CB800082341465418494643EB01054FF00002DA
:103CC8004FF00003EB0043EA5473E20014461D462C
:103CD8004346E318C7F898304B4645EB0303C7F84B
:103CE8009C30D7F8F4305B680022C7F89030C7F8EA
:103CF80094204FF000024FF00003D7E924452946ED
:103D08008B00214643EA917321468A00D7E92601B0
:103D1800FCF768FA02460B46604BA3FB02235B09DB
:103D28001C01D7F8FC300022C7F88830C7F88C206F
:103D3800D7E9228942464B469118B9615B41FB613C
:103D4800D7E9062341465118396149464B417B6101
:103D58004FF000024FF00003D7E904AB5946CB00FF
:103D6800514643EA51735146CA0010461946034664
:103D780042469B18C7F880304B460A4642EB03037D
:103D8800C7F88430D7F8F4305B680022BB67FA675D
:103D98004FF000024FF00003D7E91E8949468B0017
:103DA800414643EA917341468A00D7E92001FCF76E
:103DB80019FA02460B461146384BA3FB01235B094F
:103DC800642202FB03F3CB1A1B013233334AA2FBF2
:103DD80003235B0903F0F0031C44D7F8FC300022EE
:103DE8003B677A67D7E91C8942464B469118B96008
:103DF8005B41FB60D7E902234146511839604946C7
:103E08004B417B604FF000024FF00003D7E900AB55
:103E18005946CB00514643EA51735146CA001046F1
:103E28001946034642469B18BB664B460A4642EB78
:103E38000303FB66D7F8F4305B6800223B667A66BA
:103E48004FF000024FF00003D7E9188949468B006C
:103E5800414643EA917341468A00D7E91A01FCF7C3
:103E6800C1F902460B460D4BA3FB02135B09642103
:103E780001FB03F3D31A1B013233084AA2FB0323C5
:103E88005B0903F00F02D7F8F4301B6822449A60EC
:103E980000BF07F58077BD46BDE8B08F1F85EB51A1
:103EA80084B080B584B000AF786007F11C0080E86A
:103EB8000E0097F82130012B23D17B689B6B23F4EC
:103EC80080327B689A637B68DB6823F4840323F081
:103ED80040037A68D3607B68DB6823F440127B6810
:103EE800DA6097F82830012B05D17B68DB6843F44A
:103EF80080127B68DA60786801F0E2FA0346FB73A7
:103F08001BE07B68DB6843F040027B68DA60786816
:103F180001F0D6FA0346FB7397F82530002B06D13B
:103F28007B689B6B43F480327B689A6305E07B680F
:103F38009B6B23F480327B689A63BB7F012B0BD188
:103F48007B689B6843F006027B689A607B689B6885
:103F580043F020027B689A60FB7B18461037BD4609
:103F6800BDE8804004B0704780B487B000AFF86007
:103F7800B9601346FB71FB79022B65D1BB68414AD6
:103F8800934206D9BB68404A934202D20F237B6111
:103F980062E0BB683C4A934206D3BB683B4A934203
:103FA80002D20E237B6157E0BB68384A934206D39E
:103FB800BB68374A934202D20D237B614CE0BB6851
:103FC800334A934206D3BB68324A934202D80C2341
:103FD8007B6141E0BB682F4A934206D9BB682E4AF1
:103FE800934202D80B237B6136E0BB682A4A93428E
:103FF80006D9BB68294A934202D80A237B612BE081
:10400800BB68264A934206D9BB68254A934202D226
:1040180009237B6120E0BB68214A934206D3BB6831
:10402800204A934202D808237B6115E0BB681D4AE9
:10403800934206D9BB681C4A934202D207237B618C
:104048000AE006237B6107E0FB79002B02D10923F4
:104058007B6101E009237B61FB68DB6823F4705214
:10406800FB68DA60FB68DA687B699B0203F47053CB
:104078001A43FB68DA60002318461C37BD465DF812
:10408800047B7047BFACD800C0E1E4000024F40012
:10409800807306019F491A01FF2C31013FA44C018E
:1040A80000366E011FABA6010048E80180B483B05A
:1040B80000AF78607B689B6843F001027B689A6078
:1040C800002318460C37BD465DF8047B704780B462
:1040D80083B000AF78607B689B6823F001027B683F
:1040E8009A60002318460C37BD465DF8047B70477C
:1040F80080B584B000AF78600B46FB700023FB608E
:104108007B68DB6823F0C0427B68DA60FB78012BB0
:1041180015D17B68DB6843F000527B68DA600A20BF
:10412800FDF746F8FB680A33FB60786801F039F957
:104138000346012B1ED0FB68C72BF0D91AE0FB7889
:10414800002B15D17B68DB6843F080427B68DA601E
:104158000A20FDF72DF8FB680A33FB60786801F048
:1041680020F90346002B05D0FB68C72BF0D901E0E6
:10417800012305E0FB68C82B01D1012300E00023DF
:1041880018461037BD4680BD84B080B586B000AFF4
:10419800786007F1240080E80E000023FB757B6837
:1041A800FB6000233B6109E07A683B6940339B0070
:1041B800134400225A603B6901333B613B690E2B73
:1041C800F2D997F82E30002B1CD1FB6803F5006359
:1041D8005B68FA6802F5006243F0020353607B688B
:1041E8009B6B43F400127B689A637B689B6B23F498
:1041F80000227B689A637B689B6B23F480227B6830
:104208009A630BE07B689B6B23F400127B689A63CC
:104218007B689B6B43F400227B689A63FB6803F519
:1042280060631A460023136097F82930012B0DD1DB
:1042380097F82730002B04D10021786800F068F93E
:1042480008E00121786800F063F903E00321786849
:1042580000F05EF91021786800F0FAF80346002BA8
:1042680001D00123FB75786800F024F90346002B80
:1042780001D00123FB75FB6803F500631A46002390
:104288001361FB6803F500631A4600235361FB685A
:1042980003F500631A460023D36100233B6143E022
:1042A8003B695A01FB68134403F510631B6803F06C
:1042B8000043B3F1004F18D13B69002B0AD13B6989
:1042C8005A01FB68134403F510631A464FF0006364
:1042D800136013E03B695A01FB68134403F510634C
:1042E8001A464FF09043136008E03B695A01FB6897
:1042F800134403F510631A46002313603B695A01FF
:10430800FB68134403F510631A46002313613B69E5
:104318005A01FB68134403F510631A464FF67F33BE
:1043280093603B6901333B6197F824301A463B6937
:104338009342B5D300233B6143E03B695A01FB68D4
:10434800134403F530631B6803F00043B3F1004FD7
:1043580018D13B69002B0AD13B695A01FB68134409
:1043680003F530631A464FF00063136013E03B69AE
:104378005A01FB68134403F530631A464FF0904323
:10438800136008E03B695A01FB68134403F5306386
:104398001A46002313603B695A01FB68134403F56E
:1043A80030631A46002313613B695A01FB681344C2
:1043B80003F530631A464FF67F3393603B69013348
:1043C8003B6197F824301A463B699342B5D3FB68A2
:1043D80003F500631B69FA6802F5006223F4807331
:1043E80013617B6800229A617B686FF080425A6192
:1043F80097F82630002B05D17B689B6943F01002A3
:104408007B689A617B689A69104B13437A68936159
:1044180097F82A30002B05D07B689B6943F0080287
:104428007B689A6197F82E30012B07D17B689B69CE
:1044380043F0804343F004037A689361FB7D184698
:104448001837BD46BDE8804004B0704700383C804E
:1044580080B485B000AF786039600023FB60FB68EA
:104468000133FB60FB68B3F1706F01D903231BE0D4
:104478007B681B69002BF2DA0023FB603B689B0119
:1044880043F020027B681A61FB680133FB60FB681C
:10449800B3F1706F01D9032306E07B681B6903F051
:1044A8002003202BF0D0002318461437BD465DF8B2
:1044B800047B704780B485B000AF78600023FB6050
:1044C800FB680133FB60FB68B3F1706F01D903230C
:1044D80018E07B681B69002BF2DA0023FB607B681D
:1044E80010221A61FB680133FB60FB68B3F1706F3F
:1044F80001D9032306E07B681B6903F01003102B26
:10450800F0D0002318461437BD465DF8047B704789
:1045180080B485B000AF78600B46FB707B68FB60A9
:10452800FB6803F500631A68FB78F96801F5006118
:1045380013430B60002318461437BD465DF8047B0F
:10454800704780B487B000AF78607B683B613B6997
:1045580003F500639B6803F00603FB60FB68002B10
:1045680002D10023FB750AE0FB68022B02D0FB682E
:10457800062B02D10223FB7501E00F23FB75FB7D9F
:1045880018461C37BD465DF8047B704780B485B07B
:1045980000AF786039607B68FB603B681B78BB6064
:1045A8003B685B78012B3AD1FB6803F50063DA6955
:1045B8003B681B7803F00F03012101FA03F39BB258
:1045C800F96801F500611343CB61BB685A01FB68C8
:1045D800134403F510631B6803F40043002B55D103
:1045E800BB685A01FB68134403F510631A683B68FB
:1045F8009B68C3F30A013B681B799B041943BB689A
:104608009B050B431343BA685101FA680A4402F543
:10461800106243F0805343F40043136036E0FB68B4
:1046280003F50063DA693B681B7803F00F03012187
:1046380001FA03F31B04F96801F500611343CB6128
:10464800BB685A01FB68134403F530631B6803F425
:104658000043002B1AD1BB685A01FB68134403F5C9
:1046680030631A683B689B68C3F30A013B681B798F
:104678009B040B431343BA685101FA680A4402F5D4
:10468800306243F0805343F400431360002318461C
:104698001437BD465DF8047B7047000080B485B0D0
:1046A80000AF786039607B68FB603B681B78BB6053
:1046B8003B685B78012B61D1BB685A01FB681344E6
:1046C80003F510631B6803F00043B3F1004F1FD1DB
:1046D800BB685A01FB68134403F510631B68BA688A
:1046E8005101FA680A4402F5106243F0006313604E
:1046F800BB685A01FB68134403F510631B68BA686A
:104708005101FA680A4402F5106243F080431360CD
:10471800FB6803F50063DA6B3B681B7803F00F0353
:10472800012101FA03F39BB2DB43F96801F500614B
:104738001340CB63FB6803F50063DA693B681B78B9
:1047480003F00F03012101FA03F39BB2DB43F9687D
:1047580001F500611340CB61BB685A01FB68134443
:1047680003F510631A68BB685901FB680B4403F52D
:1047780010631946354B13400B6060E0BB685A0163
:10478800FB68134403F530631B6803F00043B3F17F
:10479800004F1FD1BB685A01FB68134403F530630F
:1047A8001B68BA685101FA680A4402F5306243F09E
:1047B80000631360BB685A01FB68134403F5306358
:1047C8001B68BA685101FA680A4402F5306243F07E
:1047D80080431360FB6803F50063DA6B3B681B7862
:1047E80003F00F03012101FA03F31B04DB43F9680B
:1047F80001F500611340CB63FB6803F50063DA69D8
:104808003B681B7803F00F03012101FA03F31B0433
:10481800DB43F96801F500611340CB61BB685A01BD
:10482800FB68134403F530631A68BB685901FB68D9
:104838000B4403F530631946054B13400B60002306
:1048480018461437BD465DF8047B7047007833EC92
:104858000078F3EF80B58AB002AFF860B96013460C
:10486800FB71FB68FB61BB681B78BB61BB685B784D
:10487800012B40F07A81BB681B69002B32D1BB69E0
:104888005A01FB69134403F510631B69BA695101A6
:10489800FA690A4402F5106223F0FF5323F4C013A7
:1048A8001361BB695A01FB69134403F510631B6963
:1048B800BA695101FA690A4402F5106243F4002307
:1048C8001361BB695A01FB69134403F510631B6943
:1048D800BA695101FA690A4402F51062DB0CDB047B
:1048E800136192E0BB695A01FB69134403F5106335
:1048F8001B69BA695101FA690A4402F51062DB0CB6
:10490800DB041361BB695A01FB69134403F51063A7
:104918001B69BA695101FA690A4402F5106223F069
:10492800FF5323F4C0131361BB69002B1AD1BB6872
:104938001A69BB689B689A4203D9BB689A68BB68C6
:104948001A61BB695A01FB69134403F510631B69BB
:10495800BA695101FA690A4402F5106243F4002366
:1049680013611BE0BB695A01FB69134403F510632B
:104978001A69BB681969BB689B680B44591EBB68F8
:104988009B68B1FBF3F3D904A24B0B40B96948010A
:10499800F969014401F5106113430B61BB695A01C0
:1049A800FB69134403F510631A69BB681B69C3F3F9
:1049B8001203B9694801F969014401F5106113430B
:1049C8000B61BB681B79012B1FD1BB695A01FB69BD
:1049D800134403F510631B69BA695101FA690A4463
:1049E80002F5106223F0C0431361BB695A01FB69E9
:1049F800134403F510631B69BA695101FA690A4443
:104A080002F5106243F000531361FB79012B4BD17F
:104A1800BB68DB69002B09D0BB695A01FB691344E9
:104A280003F510631A46BB68DB695361BB681B79E1
:104A3800012B28D1FB6903F500639B6803F480739D
:104A4800002B10D1BB695A01FB69134403F51063AD
:104A58001B68BA695101FA690A4402F5106243F009
:104A6800005313600FE0BB695A01FB69134403F557
:104A780010631B68BA695101FA690A4402F51062A9
:104A880043F080531360BB695A01FB69134403F573
:104A980010631B68BA695101FA690A4402F5106289
:104AA80043F00443136065E1BB695A01FB69134491
:104AB80003F510631B68BA695101FA690A4402F5E3
:104AC800106243F004431360BB681B79012B15D0B7
:104AD800BB681B69002B00F04D81FB6903F500637F
:104AE8005A6BBB681B7803F00F03012101FA03F32B
:104AF800F96901F5006113434B633BE1FB6903F579
:104B080000639B6803F48073002B10D1BB695A01C2
:104B1800FB69134403F510631B68BA695101FA690C
:104B28000A4402F5106243F0005313600FE0BB69BA
:104B38005A01FB69134403F510631B68BA695101F4
:104B4800FA690A4402F5106243F080531360BB68A7
:104B5800D968BB681A78BB681B6998B2FB7900935F
:104B68000346F86800F0B8F904E1BB695A01FB692B
:104B7800134403F530631B69BA695101FA690A44A1
:104B880002F53062DB0CDB041361BB695A01FB6977
:104B9800134403F530631B69BA695101FA690A4481
:104BA80002F5306223F0FF5323F4C0131361BB698D
:104BB800002B31D1BB681B69002B03D0BB689A68F6
:104BC800BB681A61BB689A68BB681A62BB695A01FC
:104BD800FB69134403F530631A69BB681B6AC3F3A6
:104BE8001203B9694801F969014401F530611343B9
:104BF8000B61BB695A01FB69134403F530631B69F8
:104C0800BA695101FA690A4402F5306243F4002393
:104C1800136161E00000F81FBB681B69002B23D1FA
:104C2800BB695A01FB69134403F530631A69BB6811
:104C38009B68C3F31203B9694801F969014401F596
:104C4800306113430B61BB695A01FB69134403F5D7
:104C580030631B69BA695101FA690A4402F5306286
:104C680043F40023136137E0BB681A69BB689B688B
:104C780013445A1EBB689B68B2FBF3F3FB82BB6804
:104C88009B68FA8A03FB02F2BB681A62BB695A0185
:104C9800FB69134403F530631A69FB8AD904384B5E
:104CA8000B40B9694801F969014401F530611343C2
:104CB8000B61BB695A01FB69134403F530631A6938
:104CC800BB681B6AC3F31203B9694801F969014457
:104CD80001F5306113430B61FB79012B0DD1BB68E2
:104CE800DB68002B09D0BB68D968BB695A01FB692E
:104CF800134403F530630A465A61BB681B79012BDC
:104D080028D1FB6903F500639B6803F48073002BCB
:104D180010D1BB695A01FB69134403F530631B6862
:104D2800BA695101FA690A4402F5306243F0005346
:104D380013600FE0BB695A01FB69134403F5306344
:104D48001B68BA695101FA690A4402F5306243F0F6
:104D580080531360BB695A01FB69134403F5306340
:104D68001B68BA695101FA690A4402F5306243F0D6
:104D780004431360002318462037BD4680BD00BF9A
:104D88000000F81F80B487B000AF78603960002356
:104D9800FB600023FB757B683B613B685B78012BFC
:104DA8004AD13B681B785A013B69134403F51063E9
:104DB8001B6803F00043B3F1004F40F086803B6866
:104DC8001B785A013B69134403F510631B683A6862
:104DD800127851013A690A4402F5106243F00063FF
:104DE80013603B681B785A013B69134403F5106351
:104DF8001B683A68127851013A690A4402F5106250
:104E080043F080431360FB680133FB60FB6842F2A8
:104E18001072934202D90123FB7556E03B681B7858
:104E28005A013B69134403F510631B6803F0004300
:104E3800B3F1004FE7D048E03B681B785A013B6963
:104E4800134403F530631B6803F00043B3F1004FCC
:104E58003BD13B681B785A013B69134403F5306327
:104E68001B683A68127851013A690A4402F53062BF
:104E780043F0006313603B681B785A013B69134495
:104E880003F530631B683A68127851013A690A449D
:104E980002F5306243F080431360FB680133FB6026
:104EA800FB6842F21072934202D90123FB750CE0B1
:104EB8003B681B785A013B69134403F530631B6850
:104EC80003F00043B3F1004FE7D0FB7D18461C37D1
:104ED800BD465DF8047B704780B489B000AFF860C8
:104EE800B96011461A460B46FB711346BB80FB6836
:104EF8007B61BB68FB6197F82830002B23D1BB8806
:104F080003339B083B610023BB6118E0FB791A035C
:104F18007B69134403F580531A46FB691B681360C9
:104F2800FB690133FB61FB690133FB61FB690133F9
:104F3800FB61FB690133FB61BB690133BB61BA6982
:104F48003B699A42E2D3002318462437BD465DF8F0
:104F5800047B704780B48BB000AFF860B96013462B
:104F6800FB80FB68BB61BB687B62FB889B089BB2CC
:104F78007B61FB8803F00303FB8300233B6214E09F
:104F8800BB6903F580531A687B6A1A607B6A013330
:104F98007B627B6A01337B627B6A01337B627B6A5B
:104FA80001337B623B6A01333B623A6A7B699A420E
:104FB800E6D3FB8B002B1ED000233B62BB6903F5B5
:104FC80080531A4607F1100312681A603A693B6A5F
:104FD800DBB2DB0022FA03F3DAB27B6A1A703B6AAF
:104FE80001333B627B6A01337B62FB8B013BFB83B2
:104FF800FB8B002BEAD17B6A18462C37BD465DF83F
:10500800047B704780B485B000AF786039607B68F6
:10501800FB603B681B78BB603B685B78012B2CD13D
:10502800BB685A01FB68134403F510631B68002B27
:1050380012DBBB68002B0FD0BB685A01FB68134416
:1050480003F510631B68BA685101FA680A4402F54F
:10505800106223F080431360BB685A01FB68134455
:1050680003F510631B68BA685101FA680A4402F52F
:10507800106243F4001313602BE0BB685A01FB680D
:10508800134403F530631B68002B12DBBB68002B4D
:105098000FD0BB685A01FB68134403F530631B68E3
:1050A800BA685101FA680A4402F5306223F0804375
:1050B8001360BB685A01FB68134403F530631B682F
:1050C800BA685101FA680A4402F5306243F40013E1
:1050D8001360002318461437BD465DF8047B7047FB
:1050E80080B485B000AF786039607B68FB603B684E
:1050F8001B78BB603B685B78012B28D1BB685A01E1
:10510800FB68134403F510631B68BA685101FA6819
:105118000A4402F5106223F4001313603B681B79FC
:10512800032B03D03B681B79022B38D1BB685A018B
:10513800FB68134403F510631B68BA685101FA68E9
:105148000A4402F5106243F08053136027E0BB68FD
:105158005A01FB68134403F530631B68BA685101B0
:10516800FA680A4402F5306223F4001313603B68BE
:105178001B79032B03D03B681B79022B0FD1BB682B
:105188005A01FB68134403F530631B68BA68510180
:10519800FA680A4402F5306243F080531360002332
:1051A80018461437BD465DF8047B704780B485B057
:1051B80000AF78600B46FB707B68FB60FB6803F50B
:1051C80000631B68FA6802F5006223F4FE6313604B
:1051D800FB6803F500631A68FB781B0103F4FE63A0
:1051E800F96801F5006113430B6000231846143772
:1051F800BD465DF8047B704780B485B000AF786029
:105208007B68FB60FB6803F560631B68FA6802F55E
:10521800606223F003031360FB6803F500635B68B7
:10522800FA6802F5006223F002035360002318466F
:105238001437BD465DF8047B704780B485B000AF75
:1052480078607B68FB60FB6803F560631B68FA683D
:1052580002F5606223F003031360FB6803F5006343
:105268005B68FA6802F5006243F0020353600023AA
:1052780018461437BD465DF8047B704780B485B086
:1052880000AF78607B685B69FB607B689B69FA6844
:105298001340FB60FB6818461437BD465DF8047B75
:1052A800704780B485B000AF78607B68FB60FB68AE
:1052B80003F500639B69BB60FB6803F50063DB696A
:1052C800BA681340BB60BB681B0C18461437BD4650
:1052D8005DF8047B704780B485B000AF78607B6868
:1052E800FB60FB6803F500639B69BB60FB6803F523
:1052F8000063DB69BA681340BB60BB689BB21846A1
:105308001437BD465DF8047B704780B485B000AFA4
:1053180078600B46FB707B68FB60FB785A01FB6882
:10532800134403F530639B68BB60FB6803F50063B7
:105338005B69BA681340BB60BB6818461437BD4642
:105348005DF8047B704780B487B000AF78600B4687
:10535800FB707B687B617B6903F500631B693B61BC
:105368007B6903F500635B6BFB60FB7803F00F035D
:10537800FA6822FA03F3DB01DBB23A6913433B61B3
:10538800FB785A017B69134403F510639B683A69FB
:105398001340BB60BB6818461C37BD465DF8047BEC
:1053A800704780B483B000AF78607B685B6903F0B6
:1053B800010318460C37BD465DF8047B704780B47E
:1053C80085B000AF78607B68FB60FB6803F510630D
:1053D8001B68FA6802F5106223F4FF6323F00703E1
:1053E8001360FB6803F500635B68FA6802F5006206
:1053F80043F480735360002318461437BD465DF8A4
:10540800047B704780B487B000AFF8600B467A60C1
:10541800FB72FB687B61FB683C3304331B683B61B0
:105428003B69264A93420AD97B6903F530631B68B6
:1054380003F00043B3F1004F01D1002337E07B694B
:1054480003F530631A46002313617B6903F5306363
:105458001B697A6902F5306243F4002313617B69A2
:1054680003F530631B697A6902F5306243F018036B
:1054780013617B6903F530631B697A6902F5306251
:1054880043F0C0431361FB7A012B0FD17B6903F50D
:1054980030631A467B6853617B6903F530631B6888
:1054A8007A6902F5306243F08023136000231846BE
:1054B8001C37BD465DF8047B704700BF0A30544F67
:1054C80080B485B000AF78600023FB60FB680133CF
:1054D800FB60FB68B3F1706F01D903231BE07B68A5
:1054E8001B69002BF2DA0023FB607B681B6943F021
:1054F80001027B681A61FB680133FB60FB68B3F14A
:10550800706F01D9032306E07B681B6903F0010370
:10551800012BF0D0002318461437BD465DF8047BF4
:10552800704780B400AF00BFBD465DF8047B70478C
:1055380080B584B000AF78600B46FB70542002F051
:1055480003FBF860FB68002B09D17B68D3F8D422F1
:105558007B68B032002143F8221002238BE07B687D
:10556800D3F8D4227B68B032F96843F822107B68FC
:10557800D3F8D4227B68B03253F822207B68C3F872
:10558800BC227B681B7C002B1BD13D4B1B7803F096
:105598000F02796813469B0013449B000B44263383
:1055A80005221A80374B1B7803F00F0279681346DF
:1055B8009B0013449B000B4403F5B37305221A8028
:1055C8001AE02F4B1B7803F00F02796813469B00F3
:1055D80013449B000B44263305221A80294B1B7861
:1055E80003F00F02796813469B0013449B000B4499
:1055F80003F5B37305221A80214B1978022303227D
:10560800786802F090F91E4B1B7803F00F02796856
:1056180013469B0013449B000B44243301221A8039
:10562800184B197802230322786802F07CF9154B8D
:105638001B7803F00F02796813469B0013449B0004
:105648000B4403F5B27301221A80FB68002283F829
:1056580050207B68D3F8D4327A68B0339B00134467
:105668005B685B689847074B1978FA684023786845
:1056780002F048FA002318461037BD4680BD00BF27
:10568800A6000020A700002080B582B000AF786097
:105698000B46FB70374B1B781946786802F069F99E
:1056A800344B1B7803F00F02796813469B001344B0
:1056B8009B000B44243300221A802E4B1B7803F0E6
:1056C8000F02796813469B0013449B000B44263352
:1056D80000221A80284B1B781946786802F049F98D
:1056E800254B1B7803F00F02796813469B0013447F
:1056F8009B000B4403F5B27300221A801E4B1B78E3
:1057080003F00F02796813469B0013449B000B4477
:1057180003F5B37300221A807B68D3F8D4227B6820
:10572800B03253F82230002B1FD07B68D3F8D43224
:105738007A68B0339B0013445B689B6898477B6822
:10574800D3F8D4227B68B03253F82230184602F0DE
:1057580009FA7B68D3F8D4227B68B032002143F879
:1057680022107B680022C3F8BC22002318460837A1
:10577800BD4680BDA6000020A700002080B588B0E7
:1057880000AF786039607B68D3F8D4227B68B03288
:1057980053F822303B610023FB830023BB610023C5
:1057A800FB810023FB753B69002B01D10323F8E043
:1057B8003B681B7803F06003002B56D0202B40F089
:1057C800E8803B685B78023B092B46D801A252F877
:1057D80023F000BF35580008135800086358000824
:1057E80063580008635800086358000863580008A5
:1057F8004558000823580008055800083B685B888E
:10580800DBB21A463B691A642EE03B694033012239
:105818001946786801F0CEFC26E03B685B881B0AD5
:105828009BB2DBB21A463B695A641DE03B694433BC
:1058380001221946786801F0BDFC15E03B69012298
:10584800DA6439693B68DB88402B28BF40239BB268
:105858001A46786801F0DAFC06E03968786801F0E1
:1058680038FC0323FB7500BF9AE03B685B780B2B81
:1058780000F2868001A252F823F000BFB558000854
:10588800975900088959000889590008895900085A
:1058980089590008DF580008895900088959000803
:1058A8008959000837590008615900087B6893F83E
:1058B8009C32DBB2032B07D107F10E0302221946F3
:1058C800786801F077FC63E03968786801F001FCDA
:1058D8000323FB755CE03B685B881B0A9BB2222BA9
:1058E80010D13B68DB88622B28BF6223FB837B686F
:1058F800D3F8D4327A68B0339B0013445B681B68D2
:10590800BB610DE03B685B881B0A9BB2212B07D16A
:10591800264BBB613B68DB88092B28BF0923FB8327
:10592800FB8B1A46B969786801F044FC30E07B6863
:1059380093F89C32DBB2032B07D13B694833012231
:105948001946786801F036FC22E03968786801F079
:10595800C0FB0323FB751BE07B6893F89C32DBB22A
:10596800032B06D13B685B88DBB21A463B699A6415
:105978000EE03968786801F0ACFB0323FB7507E09B
:105988003968786801F0A5FB0323FB7500E000BFC8
:1059980006E03968786801F09CFB0323FB7500BFBB
:1059A800FB7D18462037BD4680BD00BF9000002013
:1059B80080B586B000AFF860B9601346FB80FB681D
:1059C800D3F8D422FB68B03253F822307B617B696C
:1059D800002B01D1032319E0FB6893F89C32DBB25A
:1059E800032B12D17B6993F85030002B0BD17B69C4
:1059F800012283F85020074B1978FB88BA68F868A9
:105A080002F05FF801E0012300E000231846183790
:105A1800BD4680BDA600002080B584B000AF786088
:105A28008121154800F01DFDF8600121124800F0A1
:105A380018FDB860FB68002B09D0FB68002242F013
:105A480002021A7100225A71FB6805229A71BB681A
:105A5800002B09D0BB68002242F002021A71002212
:105A68005A71BB6805229A717B6829221A80024BF9
:105A780018461037BD4680BD6400002080B584B04C
:105A880000AF78608121154800F0EBFCF860012137
:105A9800124800F0E6FCB860FB68002B09D0FB68F0
:105AA800002242F002021A7100225A71FB68052294
:105AB8009A71BB68002B09D0BB68002242F0020231
:105AC8001A7100225A71BB6805229A717B682922D3
